:100000000C9434000C9449000C9449000C94490061
:100010000C9449000C9449000C9449000C9449003C
:100020000C9449000C9449000C9449000C9449002C
:100030000C9449000C9449000C9449000C9449001C
:100040000C9449000C9449000C9449000C9449000C
:100050000C9449000C9449000C9449000C944900FC
:100060000C9449000C94490011241FBECFEFD8E036
:10007000DEBFCDBF11E0A0E0B1E0E0E5F1E002C0FD
:1000800005900D92AE30B107D9F70E9488000C940C
:10009000A6000C940000E1ECF0E080818861808390
:1000A0008CE090E09093C5008093C400E0ECF0E019
:1000B00080818260808386E08093C2000895E1ECB5
:1000C000F0E080818068808308959091C00095FF62
:1000D000FCCF8093C6000895DC019C91911571F0CE
:1000E00020E02F5F8091C00085FFFCCF9093C60079
:1000F000FD01E20FF11D90819111F3CF08958091E0
:10010000C00087FB882780F908958091C600089574
:10011000259A0E944B002D9A2FE38DE093E0215009
:1001200080409040E1F700C000002D982D9A80E0BB
:1001300091E00E946C002D982FE38DE093E0215018
:1001400080409040E1F700C00000F0CFF894FFCF6E
:0E01500048656C6C6F20576F726C640D0A006E
:00000001FF
