:100000000C9434000C9449000C9449000C94490061
:100010000C9449000C9449000C9449000C9449003C
:100020000C9449000C9449000C9449000C9449002C
:100030000C9449000C9449000C9449000C9449001C
:100040000C9449000C9449000C9449000C9449000C
:100050000C9449000C9449000C9449000C944900FC
:100060000C9449000C94490011241FBECFEFD8E036
:10007000DEBFCDBF11E0A0E0B1E0E2E2F1E002C0FE
:1000800005900D92A830B107D9F70E9477000C9423
:100090008F000C940000E1ECF0E0808188618083A7
:1000A00080818E7F8083E2ECF0E080818F7380839B
:1000B00080818F7C80838081877F80838081866040
:1000C000808387E690E09093C5008093C4000895F4
:1000D000FC019081911551F031968091C00085FF0F
:1000E000FCCF9093C60091919111F7CF08950E9493
:1000F0004B00E1E0F1E098E48091C00085FFFCCF87
:100100009093C60091919111F7CF2FE38DE093E08A
:10011000215080409040E1F700C00000EACFF89401
:02012000FFCF0F
:0801220048656C6C6F0A0000D7
:00000001FF
